:100000000C9434000C9449000C9449000C94490061
:100010000C9449000C9449000C9449000C9449003C
:100020000C9449000C9449000C9449000C9449002C
:100030000C9449000C9449000C9449000C9449001C
:100040000C9449000C9449000C9449000C9449000C
:100050000C9449000C9449000C9449000C944900FC
:100060000C9449000C94490011241FBECFEFD8E036
:10007000DEBFCDBF11E0A0E0B1E0E8E2F5E002C0F4
:1000800005900D92A239B107D9F70E9446010C9450
:1000900092020C940000CF93DF9300D0CDB7DEB76F
:1000A0009A83898380EC90E022E0FC01208385EC38
:1000B00090E029813A81232F3327FC01208384ECAF
:1000C00090E02981FC01208381EC90E028E1FC0193
:1000D000208382EC90E022E0FC01208382EC90E01F
:1000E00022EC30E0F90120812460FC012083000033
:1000F0000F900F90DF91CF910895CF93DF931F92D0
:10010000CDB7DEB78983000080EC90E0FC018081F0
:10011000882F90E080729927892BB1F386EC90E0CC
:10012000FC0180818D3081F486EC90E02AE0FC01B6
:100130002083000080EC90E0FC018081882F90E01B
:1001400080729927892BB1F386EC90E02981FC011C
:10015000208300000F90DF91CF910895CF93DF931C
:1001600000D000D0CDB7DEB79C838B831A82198272
:100170000FC089819A812B813C81820F931FFC01E2
:1001800080810E947D0089819A8101969A8389836A
:1001900089819A812B813C81820F931FFC01808190
:1001A000882339F700000F900F900F900F90DF9188
:1001B000CF910895CF93DF9300D0CDB7DEB7000085
:1001C00080EC90E0FC0180818823D4F71A821982A8
:1001D00089819A8101969A838983FACFCF93DF939D
:1001E00000D000D000D0CDB7DEB79C838B837E8358
:1001F0006D831A82198205C089819A8101969A833A
:10020000898389819A812B813C81820F931FFC0114
:1002100080818823E1F089819A812D813E81820F3E
:10022000931FFC018081882391F089819A812B8121
:100230003C81820F931FFC01408189819A812D812D
:100240003E81820F931FFC0180814817A9F28981AA
:100250009A812B813C81820F931FFC01408189810F
:100260009A812D813E81820F931FFC01908181E054
:10027000491709F480E0882F90E026960FB6F8948D
:10028000DEBF0FBECDBFDF91CF910895CF93DF9337
:10029000CDB7DEB760970FB6F894DEBF0FBECDBF07
:1002A00027E0CE010596FC01322F11923A95E9F72D
:1002B00025E0CE010C96FC01322F11923A95E9F718
:1002C0001A82198284E290E024E230E0F901208170
:1002D0002260FC01208384E290E024E230E0F90116
:1002E00020812460FC01208384E290E024E230E05D
:1002F000F90120812860FC01208384E290E024E25F
:1003000030E0F90120812160FC01208380E190E050
:100310000E944B0080E091E00E94AE0058C00E9415
:10032000DA00482F9E012B5F3F4F89819A81820F0F
:10033000931FFC0140839E012B5F3F4F89819A816F
:10034000820F931FFC0180818D3051F49E012B5F41
:100350003F4F89819A81820F931FFC0110823CC01C
:100360009E012B5F3F4F89819A81820F931FFC0171
:1003700080818F37E1F489819A81892BC1F089814D
:100380009A8101979A8389839E012B5F3F4F8981D0
:100390009A81820F931FFC01108288E00E947D00E9
:1003A00080E20E947D0088E00E947D0010C09E01D6
:1003B0002B5F3F4F89819A81820F931FFC018081BF
:1003C0000E947D0089819A8101969A83898389811F
:1003D0009A8106970CF4A3CF1A8219828EE291E0DB
:1003E0000E94AE0050C00E94DA00482F9E01245F98
:1003F0003F4F89819A81820F931FFC0140839E01A8
:10040000245F3F4F89819A81820F931FFC01808175
:100410008D3051F49E01245F3F4F89819A81820F74
:10042000931FFC01108234C09E012B5F3F4F8981D6
:100430009A81820F931FFC0180818F37E1F48981BB
:100440009A81892BC1F089819A8101979A83898346
:100450009E012B5F3F4F89819A81820F931FFC0180
:10046000108288E00E947D0080E20E947D0088E08A
:100470000E947D0008C08AE20E947D0089819A81E5
:1004800001969A83898389819A8104970CF4ABCF72
:100490001A821982CE0105966FE371E00E94EE0088
:1004A000892B69F0CE010C9665E471E00E94EE00A4
:1004B000892B29F089E491E00E94AE002BCF86E7DA
:1004C00091E00E94AE00CE0105960E94AE0080E849
:1004D00091E00E94AE0085E290E028E0FC012083DC
:1004E00085E290E0FC0180818F3029F485E290E084
:1004F00028E0FC0120831C821B8205C08B819C812B
:1005000001969C838B838B819C81883E9340B4F3BE
:1005100085E290E025E230E0F90120812695FC019A
:080520002083DECFF894FFCF29
:10052800426F6E6A6F7572202120456E7472657A0B
:1005380020766F747265206C6F67696E3A0D0A20B9
:10054800202020757365726E616D653A20000D0A72
:100558002020202070617373776F72643A200068DE
:100568007567676F00313233000A0D4D617576612A
:1005780069736520636F6D62696E6169736F6E2060
:10058800757365726E616D652F70617373776F72C5
:10059800640A0A0A0D000A0D434F55434F552000BF
:1005A8002121212121212121212121212121212133
:0205B800000041
:00000001FF
