:100000000C9434000C943E000C943E000C943E0082
:100010000C943E000C943E000C943E000C943E0068
:100020000C943E000C943E000C943E000C943E0058
:100030000C943E000C943E000C943E000C943E0048
:100040000C943E000C943E000C943E000C943E0038
:100050000C943E000C943E000C943E000C943E0028
:100060000C943E000C943E0011241FBECFEFD8E04C
:10007000DEBFCDBF0E9440000C9495000C940000A0
:10008000CF93DF9300D000D0CDB7DEB784E290E00D
:1000900028E0FC01208385E290E028E0FC01208339
:1000A00085E290E0FC01208185E290E0220FFC01D6
:1000B000208319821A821B821C820BC089819A813B
:1000C000AB81BC810196A11DB11D89839A83AB834D
:1000D000BC8389819A81AB81BC8180349D40A340DF
:1000E000B10564F385E290E0FC01208185E290E0B7
:1000F0002695FC01208319821A821B821C820BC068
:1001000089819A81AB81BC810196A11DB11D898332
:100110009A83AB83BC8389819A81AB81BC81803413
:0E0120009D40A340B10564F3BBCFF894FFCF20
:00000001FF
