:100000000C9434000C943E000C943E000C943E0082
:100010000C943E000C943E000C943E000C943E0068
:100020000C943E000C943E000C943E000C943E0058
:100030000C943E000C943E000C943E000C943E0048
:100040000C943E000C943E000C943E000C943E0038
:100050000C943E000C943E000C943E000C943E0028
:100060000C943E000C943E0011241FBECFEFD8E04C
:10007000DEBFCDBF0E9440000C9497000C9400009E
:10008000CF93DF93CDB7DEB784E290E022E0FC01AE
:10009000208386E890E021E13AE7FC013183208368
:1000A00088E890E024E33CE0FC013183208380E891
:1000B00090E020E830E0F90120812068FC012083F5
:1000C00080E890E020E830E0F90120812062FC0126
:1000D000208380E890E020E830E0F9012081226070
:1000E000FC01208381E890E021E830E0F9012081E3
:1000F0002860FC01208381E890E021E830E0F901EC
:1001000020812061FC01208381E890E021E830E03B
:10011000F90120812460FC01208381E890E021E83E
:1001200030E0F90120812160FC012083FFCFF894A9
:02013000FFCFFF
:00000001FF
