:100000000C9434000C943E000C943E000C943E0082
:100010000C943E000C943E000C943E000C943E0068
:100020000C943E000C943E000C943E000C943E0058
:100030000C943E000C943E000C943E000C943E0048
:100040000C943E000C943E000C943E000C943E0038
:100050000C943E000C943E000C943E000C943E0028
:100060000C943E000C943E0011241FBECFEFD8E04C
:10007000DEBFCDBF0E9440000C947E000C940000B7
:10008000CF93DF93CDB7DEB784E290E0FC018081AF
:1000900084E290E02FEFFC01208381E890E0FC01F6
:1000A000208181E890E02860FC01208388E890E0CE
:1000B00028E03DE3FC013183208381E890E0FC01EE
:1000C000208181E890E02360FC012083FFCFCF9363
:1000D000DF9300D0CDB7DEB79A83898385E290E0C5
:1000E000FC01308185E290E021E02327FC012083A0
:1000F00000000F900F90DF91CF910895F894FFCFFB
:00000001FF
