:100000000C9434000C943E000C943E000C943E0082
:100010000C943E000C943E000C943E000C943E0068
:100020000C943E000C943E000C943E000C943E0058
:100030000C943E000C943E000C943E000C943E0048
:100040000C943E000C943E000C943E000C943E0038
:100050000C943E000C943E000C943E000C943E0028
:100060000C943E000C943E0011241FBECFEFD8E04C
:10007000DEBFCDBF0E9440000C948B000C940000AA
:10008000CF93DF9300D000D0CDB7DEB784E290E00D
:1000900028E0FC01208385E290E028E0FC01208339
:1000A00081E090E09A83898389E290E0FC0180817D
:1000B000882F90E088709927892BF9F489819A819B
:1000C000892B51F485E290E028E0FC01208381E057
:1000D00090E09A83898306C085E290E0FC0110825B
:1000E0001A821982000089E290E0FC018081882F49
:1000F00090E088709927892BB1F31C821B8205C080
:100100008B819C8101969C838B838B819C81883E13
:0A0110009340B4F3C9CFF894FFCF79
:00000001FF
