:100000000C9434000C943E000C943E000C943E0082
:100010000C943E000C943E000C943E000C943E0068
:100020000C943E000C943E000C943E000C943E0058
:100030000C943E000C943E000C943E000C943E0048
:100040000C943E000C943E000C943E000C943E0038
:100050000C943E000C943E000C943E000C943E0028
:100060000C943E000C943E0011241FBECFEFD8E04C
:10007000DEBFCDBF0E94B4000C94EE000C940000D3
:10008000CF93DF9300D000D0CDB7DEB79C838B83B6
:1000900085E290E0FC01108281E090E09A83898300
:1000A0000EC02B813C8189819A81822793279C8372
:1000B0008B8389819A81880F991F9A8389832B81E9
:1000C0003C8189819A8182239323892B51F72B814B
:1000D0003C8189819A81822793279C838B838B81A2
:1000E0009C8188709927892B49F085E290E0FC017A
:1000F000208185E290E02860FC0120838B819C8137
:1001000084709927892B49F085E290E0FC012081D9
:1001100085E290E02460FC0120838B819C818270C9
:100120009927892B49F085E290E0FC01208185E246
:1001300090E02260FC0120838B819C818170992753
:10014000892B49F085E290E0FC01208185E290E076
:100150002160FC0120838B819C810F900F900F9078
:100160000F90DF91CF910895CF93DF9300D000D00F
:10017000CDB7DEB784E290E02FEFFC01208385E26B
:1001800090E0FC0110821A82198289E290E0FC0161
:100190008081882F90E088709927892B89F4898144
:1001A0009A810E9440009A838983000089E290E04E
:1001B000FC018081882F90E088709927892BB1F30A
:1001C0001C821B8205C08B819C8101969C838B8342
:1001D0008B819C81883E9340B4F3D7CFF894FFCFB6
:00000001FF
